{
  "contractName": "Board",
  "abi": [
    {
      "inputs": [],
      "payable": false,
      "stateMutability": "nonpayable",
      "type": "constructor"
    },
    {
      "anonymous": false,
      "inputs": [
        {
          "indexed": false,
          "name": "chair",
          "type": "address"
        }
      ],
      "name": "BoardCreated",
      "type": "event"
    },
    {
      "anonymous": false,
      "inputs": [
        {
          "indexed": false,
          "name": "member",
          "type": "address"
        }
      ],
      "name": "NewBoardMember",
      "type": "event"
    },
    {
      "constant": false,
      "inputs": [
        {
          "name": "_m",
          "type": "address"
        }
      ],
      "name": "addBoardMem",
      "outputs": [
        {
          "name": "",
          "type": "bool"
        }
      ],
      "payable": false,
      "stateMutability": "nonpayable",
      "type": "function"
    }
  ],
  "bytecode": "0x608060405234801561001057600080fd5b50336000806101000a81548173ffffffffffffffffffffffffffffffffffffffff021916908373ffffffffffffffffffffffffffffffffffffffff160217905550610256806100606000396000f3fe608060405260043610610041576000357c0100000000000000000000000000000000000000000000000000000000900463ffffffff1680638fdb935e14610046575b600080fd5b34801561005257600080fd5b506100956004803603602081101561006957600080fd5b81019080803573ffffffffffffffffffffffffffffffffffffffff1690602001909291905050506100af565b604051808215151515815260200191505060405180910390f35b600060011515600160003373ffffffffffffffffffffffffffffffffffffffff1673ffffffffffffffffffffffffffffffffffffffff16815260200190815260200160002060009054906101000a900460ff161515148061015c57506000809054906101000a900473ffffffffffffffffffffffffffffffffffffffff1673ffffffffffffffffffffffffffffffffffffffff163373ffffffffffffffffffffffffffffffffffffffff16145b151561016757600080fd5b60018060008473ffffffffffffffffffffffffffffffffffffffff1673ffffffffffffffffffffffffffffffffffffffff16815260200190815260200160002060006101000a81548160ff0219169083151502179055507fb72b5a33df5f6d25f8e61a2055813b2112ce83649e36e54d97a526aa5fce78b482604051808273ffffffffffffffffffffffffffffffffffffffff1673ffffffffffffffffffffffffffffffffffffffff16815260200191505060405180910390a16001905091905056fea165627a7a723058203b73365954526ae6315c6afbca6873a7893b2bdfa86dd11278d2ff0f563f3cec0029",
  "source": "pragma solidity ^0.5.0;\n\n\ncontract Board {\n\n    address private owner;\n\n    constructor() public {\n        /* Set the owner to the creator of this contract */\n        owner = msg.sender;\n    }\n\n    event BoardCreated(address chair); // Event\n    event NewBoardMember(address member); //Event\n\n    mapping(address => bool) boardMembers;\n\n    modifier onlyBoard {\n      require(boardMembers[msg.sender] == true || msg.sender == owner);\n      _;\n    }\n\n    function addBoardMem(address _m)\n      public\n      onlyBoard\n      returns(bool) {\n        boardMembers[_m] = true;\n        emit NewBoardMember(_m);\n        return true;\n      }\n\n\n    //This function allows for the destruction of the contract\n    /*function kill()\n    public\n    {\n      if(msg.sender == owner){\n        selfdestruct(owner);\n        _;\n      }\n    }\n    */\n\n    //\n    // State variables\n    //\n\n\n}\n",
  "sourcePath": "/home/davepander/projects/final-project-davepander/contracts/Board.sol",
  "compiler": {
    "name": "solc",
    "version": "0.5.0+commit.1d4f565a.Emscripten.clang"
  },
  "schemaVersion": "3.0.1",
  "updatedAt": "2019-01-28T02:06:55.017Z",
  "devdoc": {
    "methods": {}
  },
  "userdoc": {
    "methods": {}
  }
}