{
  "contractName": "Board",
  "abi": [
    {
      "inputs": [],
      "payable": false,
      "stateMutability": "nonpayable",
      "type": "constructor"
    },
    {
      "anonymous": false,
      "inputs": [
        {
          "indexed": false,
          "name": "chair",
          "type": "address"
        }
      ],
      "name": "BoardCreated",
      "type": "event"
    },
    {
      "anonymous": false,
      "inputs": [
        {
          "indexed": false,
          "name": "member",
          "type": "address"
        }
      ],
      "name": "NewBoardMember",
      "type": "event"
    },
    {
      "constant": false,
      "inputs": [],
      "name": "kill",
      "outputs": [],
      "payable": false,
      "stateMutability": "nonpayable",
      "type": "function"
    }
  ],
  "bytecode": "0x608060405234801561001057600080fd5b50336000806101000a81548173ffffffffffffffffffffffffffffffffffffffff021916908373ffffffffffffffffffffffffffffffffffffffff16021790555060018060008060009054906101000a900473ffffffffffffffffffffffffffffffffffffffff1673ffffffffffffffffffffffffffffffffffffffff1673ffffffffffffffffffffffffffffffffffffffff16815260200190815260200160002060006101000a81548160ff021916908315150217905550610114806100d86000396000f3fe608060405260043610603f576000357c0100000000000000000000000000000000000000000000000000000000900463ffffffff16806341c0e1b5146044575b600080fd5b348015604f57600080fd5b5060566058565b005b6000809054906101000a900473ffffffffffffffffffffffffffffffffffffffff1673ffffffffffffffffffffffffffffffffffffffff163373ffffffffffffffffffffffffffffffffffffffff16141560e6576000809054906101000a900473ffffffffffffffffffffffffffffffffffffffff1673ffffffffffffffffffffffffffffffffffffffff16ff5b56fea165627a7a72305820a050a9b60d34a4d73dc5a87c58790fe73989e965bf9b2c035a5254ed0be12cec0029",
  "source": "pragma solidity ^0.5.0;\n\n\ncontract Board {\n\n    address payable owner;\n    mapping(address => bool) boardMembers;\n\n    constructor() public {\n        /* Set the owner to the creator of this contract */\n        owner = msg.sender;\n        boardMembers[owner] = true;\n    }\n\n    event BoardCreated(address chair); // Event\n    event NewBoardMember(address member); //Event\n\n    modifier onlyBoard {\n      require(boardMembers[msg.sender] == true);\n      _;\n    }\n\n    function addBoardMem(address _m)\n      internal\n      onlyBoard\n      returns(bool) {\n        boardMembers[_m] = true;\n        emit NewBoardMember(_m);\n        return true;\n      }\n\n\n    //This function allows for the destruction of the contract\n    function kill()\n    public\n    {\n      if (msg.sender == owner) selfdestruct(owner);\n    }\n\n\n    //\n    // State variables\n    //\n\n\n}\n",
  "sourcePath": "/Users/davepander/Documents/Projects/Consensys/final-project-davepander/contracts/Board.sol",
  "compiler": {
    "name": "solc",
    "version": "0.5.0+commit.1d4f565a.Emscripten.clang"
  },
  "schemaVersion": "3.0.1",
  "updatedAt": "2019-01-28T08:04:24.852Z",
  "devdoc": {
    "methods": {}
  },
  "userdoc": {
    "methods": {}
  }
}