{
  "contractName": "Board",
  "abi": [
    {
      "constant": true,
      "inputs": [
        {
          "name": "",
          "type": "address"
        }
      ],
      "name": "registry",
      "outputs": [
        {
          "name": "account",
          "type": "address"
        },
        {
          "name": "first",
          "type": "string"
        },
        {
          "name": "last",
          "type": "string"
        }
      ],
      "payable": false,
      "stateMutability": "view",
      "type": "function"
    },
    {
      "inputs": [],
      "payable": false,
      "stateMutability": "nonpayable",
      "type": "constructor"
    },
    {
      "anonymous": false,
      "inputs": [
        {
          "indexed": false,
          "name": "chair",
          "type": "address"
        }
      ],
      "name": "BoardCreated",
      "type": "event"
    },
    {
      "anonymous": false,
      "inputs": [
        {
          "indexed": false,
          "name": "member",
          "type": "address"
        }
      ],
      "name": "NewBoardMember",
      "type": "event"
    },
    {
      "constant": false,
      "inputs": [
        {
          "name": "_m",
          "type": "address"
        },
        {
          "name": "_first",
          "type": "string"
        },
        {
          "name": "_last",
          "type": "string"
        }
      ],
      "name": "addBoardMem",
      "outputs": [
        {
          "name": "",
          "type": "bool"
        }
      ],
      "payable": false,
      "stateMutability": "nonpayable",
      "type": "function"
    },
    {
      "constant": true,
      "inputs": [
        {
          "name": "n",
          "type": "address"
        }
      ],
      "name": "listBoardName",
      "outputs": [
        {
          "name": "",
          "type": "string"
        }
      ],
      "payable": false,
      "stateMutability": "view",
      "type": "function"
    },
    {
      "constant": false,
      "inputs": [],
      "name": "kill",
      "outputs": [],
      "payable": false,
      "stateMutability": "nonpayable",
      "type": "function"
    }
  ],
  "bytecode": "0x608060405234801561001057600080fd5b50336000806101000a81548173ffffffffffffffffffffffffffffffffffffffff021916908373ffffffffffffffffffffffffffffffffffffffff16021790555060018060008060009054906101000a900473ffffffffffffffffffffffffffffffffffffffff1673ffffffffffffffffffffffffffffffffffffffff1673ffffffffffffffffffffffffffffffffffffffff16815260200190815260200160002060006101000a81548160ff021916908315150217905550610a67806100d86000396000f3fe608060405260043610610062576000357c0100000000000000000000000000000000000000000000000000000000900463ffffffff168063038defd7146100675780630c5f6eec146101d057806341c0e1b514610367578063ef08599d1461037e575b600080fd5b34801561007357600080fd5b506100b66004803603602081101561008a57600080fd5b81019080803573ffffffffffffffffffffffffffffffffffffffff169060200190929190505050610448565b604051808473ffffffffffffffffffffffffffffffffffffffff1673ffffffffffffffffffffffffffffffffffffffff1681526020018060200180602001838103835285818151815260200191508051906020019080838360005b8381101561012c578082015181840152602081019050610111565b50505050905090810190601f1680156101595780820380516001836020036101000a031916815260200191505b50838103825284818151815260200191508051906020019080838360005b83811015610192578082015181840152602081019050610177565b50505050905090810190601f1680156101bf5780820380516001836020036101000a031916815260200191505b509550505050505060405180910390f35b3480156101dc57600080fd5b5061034d600480360360608110156101f357600080fd5b81019080803573ffffffffffffffffffffffffffffffffffffffff1690602001909291908035906020019064010000000081111561023057600080fd5b82018360208201111561024257600080fd5b8035906020019184600183028401116401000000008311171561026457600080fd5b91908080601f016020809104026020016040519081016040528093929190818152602001838380828437600081840152601f19601f820116905080830192505050505050509192919290803590602001906401000000008111156102c757600080fd5b8201836020820111156102d957600080fd5b803590602001918460018302840111640100000000831117156102fb57600080fd5b91908080601f016020809104026020016040519081016040528093929190818152602001838380828437600081840152601f19601f8201169050808301925050505050505091929192905050506105c2565b604051808215151515815260200191505060405180910390f35b34801561037357600080fd5b5061037c6107e9565b005b34801561038a57600080fd5b506103cd600480360360208110156103a157600080fd5b81019080803573ffffffffffffffffffffffffffffffffffffffff16906020019092919050505061087a565b6040518080602001828103825283818151815260200191508051906020019080838360005b8381101561040d5780820151818401526020810190506103f2565b50505050905090810190601f16801561043a5780820380516001836020036101000a031916815260200191505b509250505060405180910390f35b60026020528060005260406000206000915090508060000160009054906101000a900473ffffffffffffffffffffffffffffffffffffffff1690806001018054600181600116156101000203166002900480601f01602080910402602001604051908101604052809291908181526020018280546001816001161561010002031660029004801561051a5780601f106104ef5761010080835404028352916020019161051a565b820191906000526020600020905b8154815290600101906020018083116104fd57829003601f168201915b505050505090806002018054600181600116156101000203166002900480601f0160208091040260200160405190810160405280929190818152602001828054600181600116156101000203166002900480156105b85780601f1061058d576101008083540402835291602001916105b8565b820191906000526020600020905b81548152906001019060200180831161059b57829003601f168201915b5050505050905083565b600060011515600160003373ffffffffffffffffffffffffffffffffffffffff1673ffffffffffffffffffffffffffffffffffffffff16815260200190815260200160002060009054906101000a900460ff16151514151561062357600080fd5b60018060008673ffffffffffffffffffffffffffffffffffffffff1673ffffffffffffffffffffffffffffffffffffffff16815260200190815260200160002060006101000a81548160ff0219169083151502179055507fb72b5a33df5f6d25f8e61a2055813b2112ce83649e36e54d97a526aa5fce78b484604051808273ffffffffffffffffffffffffffffffffffffffff1673ffffffffffffffffffffffffffffffffffffffff16815260200191505060405180910390a16106e561095e565b6060604051908101604052808673ffffffffffffffffffffffffffffffffffffffff16815260200185815260200184815250905080600260008773ffffffffffffffffffffffffffffffffffffffff1673ffffffffffffffffffffffffffffffffffffffff16815260200190815260200160002060008201518160000160006101000a81548173ffffffffffffffffffffffffffffffffffffffff021916908373ffffffffffffffffffffffffffffffffffffffff16021790555060208201518160010190805190602001906107bc929190610996565b5060408201518160020190805190602001906107d9929190610996565b5090505060019150509392505050565b6000809054906101000a900473ffffffffffffffffffffffffffffffffffffffff1673ffffffffffffffffffffffffffffffffffffffff163373ffffffffffffffffffffffffffffffffffffffff161415610878576000809054906101000a900473ffffffffffffffffffffffffffffffffffffffff1673ffffffffffffffffffffffffffffffffffffffff16ff5b565b6060600260008373ffffffffffffffffffffffffffffffffffffffff1673ffffffffffffffffffffffffffffffffffffffff1681526020019081526020016000206002018054600181600116156101000203166002900480601f0160208091040260200160405190810160405280929190818152602001828054600181600116156101000203166002900480156109525780601f1061092757610100808354040283529160200191610952565b820191906000526020600020905b81548152906001019060200180831161093557829003601f168201915b50505050509050919050565b606060405190810160405280600073ffffffffffffffffffffffffffffffffffffffff16815260200160608152602001606081525090565b828054600181600116156101000203166002900490600052602060002090601f016020900481019282601f106109d757805160ff1916838001178555610a05565b82800160010185558215610a05579182015b82811115610a045782518255916020019190600101906109e9565b5b509050610a129190610a16565b5090565b610a3891905b80821115610a34576000816000905550600101610a1c565b5090565b9056fea165627a7a7230582065aba713f9d797bd1a57d562e4f3c968529b44ceec3557adea5495ea095948370029",
  "source": "pragma solidity ^0.5.0;\n\n/**\n * @title Contract for a Board Entity for an transparent real world organization\n * @author David Anderson\n */\ncontract Board {\n    struct BoardMember {\n      address account;\n      string first;\n      string last;\n    }\n\n    address payable owner;\n    mapping(address => bool) boardMembers;\n    mapping(address => BoardMember) public registry;\n\n    constructor() public {\n        /* Set the owner to the creator of this contract */\n        owner = msg.sender;\n        boardMembers[owner] = true;\n    }\n\n    /// @notice A Board has been created\n    event BoardCreated(address chair); // Event\n\n    /// @notice A New Board Member has been added\n    event NewBoardMember(address member); //Event\n\n    /// @dev Verify that certain function calls are restricted to Board Members\n    modifier onlyBoard {\n      require(boardMembers[msg.sender] == true);\n      _;\n    }\n\n    /// @notice A board member has been Added\n    /// @dev This creates an entry for the mapping that determines who has\n    /// access to certain functions and\n    /// creates a publicly viewable record of the members of the board.\n    function addBoardMem(address _m, string memory _first, string memory _last)\n      public\n      onlyBoard\n      returns(bool) {\n        boardMembers[_m] = true;\n        emit NewBoardMember(_m);\n\n        BoardMember memory newMember = BoardMember({\n          account:_m,\n          first:_first,\n          last:_last\n        });\n        registry[_m] = newMember;\n\n        return true;\n      }\n\n\n    /**\n     * @notice This is a public function for anyone to see who is on the board.\n     */\n    function listBoardName(address n) public view returns(string memory) {\n      return registry[n].last;\n    }\n\n    /// This function allows for the destruction of the contract\n    function kill()\n    public\n    {\n      if (msg.sender == owner) selfdestruct(owner);\n    }\n\n\n}\n",
  "sourcePath": "/Users/davepander/Documents/Projects/Consensys/final-project-davepander/contracts/Board.sol",
  "compiler": {
    "name": "solc",
    "version": "0.5.0+commit.1d4f565a.Emscripten.clang"
  },
  "schemaVersion": "3.0.1",
  "updatedAt": "2019-01-28T11:21:15.876Z",
  "devdoc": {
    "author": "David Anderson",
    "methods": {
      "addBoardMem(address,string,string)": {
        "details": "This creates an entry for the mapping that determines who has access to certain functions and creates a publicly viewable record of the members of the board."
      }
    },
    "title": "Contract for a Board Entity for an transparent real world organization"
  },
  "userdoc": {
    "methods": {
      "addBoardMem(address,string,string)": {
        "notice": "A board member has been Added"
      },
      "kill()": {
        "notice": "This function allows for the destruction of the contract"
      },
      "listBoardName(address)": {
        "notice": "This is a public function for anyone to see who is on the board."
      }
    }
  }
}